:100000000C942A000C9434000C9434000C943400AA
:100010000C9434000C9434000C9434000C94340090
:100020000C9434000C9434000C9434000C94340080
:100030000C9434000C9434000C9434000C94340070
:100040000C9434000C9434000C9434000C94340060
:100050000C94340011241FBECFE5D4E0DEBFCDBF29
:100060000E9436000C944C000C940000D09AD19859
:10007000DD9ACD9902C0D89AFCCFD89A87EA91E64A
:100080000197F1F700C00000D89887EA91E6019740
:0C009000F1F700C00000EDCFF894FFCFA6
:00000001FF
